{
  "_format": "hh-sol-artifact-1",
  "contractName": "Vote",
  "sourceName": "contracts/VOTE.sol",
  "abi": [
    {
      "inputs": [],
      "stateMutability": "nonpayable",
      "type": "constructor"
    },
    {
      "inputs": [
        {
          "internalType": "string",
          "name": "name",
          "type": "string"
        },
        {
          "internalType": "uint256",
          "name": "durationInMinutes",
          "type": "uint256"
        },
        {
          "internalType": "string[]",
          "name": "candidates",
          "type": "string[]"
        },
        {
          "internalType": "address[]",
          "name": "allowedVoters",
          "type": "address[]"
        },
        {
          "internalType": "string",
          "name": "_describe",
          "type": "string"
        }
      ],
      "name": "createElection",
      "outputs": [],
      "stateMutability": "nonpayable",
      "type": "function"
    },
    {
      "inputs": [
        {
          "internalType": "uint256",
          "name": "electionId",
          "type": "uint256"
        }
      ],
      "name": "deleteElection",
      "outputs": [],
      "stateMutability": "nonpayable",
      "type": "function"
    },
    {
      "inputs": [
        {
          "internalType": "uint256",
          "name": "electionId",
          "type": "uint256"
        }
      ],
      "name": "detailElection",
      "outputs": [
        {
          "internalType": "string",
          "name": "name_",
          "type": "string"
        },
        {
          "internalType": "uint256",
          "name": "endTime_",
          "type": "uint256"
        },
        {
          "internalType": "string[]",
          "name": "candidates_",
          "type": "string[]"
        },
        {
          "internalType": "address[]",
          "name": "allowedVoters_",
          "type": "address[]"
        },
        {
          "internalType": "string",
          "name": "describe_",
          "type": "string"
        }
      ],
      "stateMutability": "view",
      "type": "function"
    },
    {
      "inputs": [],
      "name": "electionID",
      "outputs": [
        {
          "internalType": "uint256",
          "name": "",
          "type": "uint256"
        }
      ],
      "stateMutability": "view",
      "type": "function"
    },
    {
      "inputs": [
        {
          "internalType": "uint256",
          "name": "",
          "type": "uint256"
        }
      ],
      "name": "electionIDs",
      "outputs": [
        {
          "internalType": "uint256",
          "name": "",
          "type": "uint256"
        }
      ],
      "stateMutability": "view",
      "type": "function"
    },
    {
      "inputs": [
        {
          "internalType": "uint256",
          "name": "",
          "type": "uint256"
        }
      ],
      "name": "elections",
      "outputs": [
        {
          "internalType": "string",
          "name": "name",
          "type": "string"
        },
        {
          "internalType": "uint256",
          "name": "endTime",
          "type": "uint256"
        },
        {
          "internalType": "string",
          "name": "describe",
          "type": "string"
        },
        {
          "internalType": "bool",
          "name": "exists",
          "type": "bool"
        }
      ],
      "stateMutability": "view",
      "type": "function"
    },
    {
      "inputs": [],
      "name": "getAllElectionNames",
      "outputs": [
        {
          "internalType": "string[]",
          "name": "",
          "type": "string[]"
        }
      ],
      "stateMutability": "view",
      "type": "function"
    },
    {
      "inputs": [
        {
          "internalType": "uint256",
          "name": "electionId",
          "type": "uint256"
        }
      ],
      "name": "getCandidates",
      "outputs": [
        {
          "components": [
            {
              "internalType": "string",
              "name": "name",
              "type": "string"
            },
            {
              "internalType": "uint256",
              "name": "votes",
              "type": "uint256"
            }
          ],
          "internalType": "struct Vote.CandidateVotes[]",
          "name": "",
          "type": "tuple[]"
        }
      ],
      "stateMutability": "view",
      "type": "function"
    },
    {
      "inputs": [
        {
          "internalType": "uint256",
          "name": "_electionId",
          "type": "uint256"
        }
      ],
      "name": "getElectionWinner",
      "outputs": [
        {
          "internalType": "string",
          "name": "",
          "type": "string"
        },
        {
          "internalType": "uint256",
          "name": "",
          "type": "uint256"
        }
      ],
      "stateMutability": "view",
      "type": "function"
    },
    {
      "inputs": [
        {
          "internalType": "uint256",
          "name": "electionId",
          "type": "uint256"
        },
        {
          "internalType": "string",
          "name": "candidate",
          "type": "string"
        }
      ],
      "name": "getVotes",
      "outputs": [
        {
          "internalType": "uint256",
          "name": "",
          "type": "uint256"
        }
      ],
      "stateMutability": "view",
      "type": "function"
    },
    {
      "inputs": [],
      "name": "owner",
      "outputs": [
        {
          "internalType": "address",
          "name": "",
          "type": "address"
        }
      ],
      "stateMutability": "view",
      "type": "function"
    },
    {
      "inputs": [
        {
          "internalType": "uint256",
          "name": "_electionID",
          "type": "uint256"
        },
        {
          "internalType": "address[]",
          "name": "newAllowedVoters",
          "type": "address[]"
        }
      ],
      "name": "setAllowedVoters",
      "outputs": [
        {
          "internalType": "bool",
          "name": "",
          "type": "bool"
        }
      ],
      "stateMutability": "nonpayable",
      "type": "function"
    },
    {
      "inputs": [
        {
          "internalType": "uint256",
          "name": "electionId",
          "type": "uint256"
        },
        {
          "internalType": "string[]",
          "name": "newCandidates",
          "type": "string[]"
        }
      ],
      "name": "setCandidates",
      "outputs": [
        {
          "internalType": "bool",
          "name": "",
          "type": "bool"
        }
      ],
      "stateMutability": "nonpayable",
      "type": "function"
    },
    {
      "inputs": [
        {
          "internalType": "uint256",
          "name": "electionId",
          "type": "uint256"
        },
        {
          "internalType": "string",
          "name": "candidate",
          "type": "string"
        }
      ],
      "name": "vote",
      "outputs": [],
      "stateMutability": "nonpayable",
      "type": "function"
    }
  ],
  "bytecode": "0x6080604052348015600f57600080fd5b50336000806101000a81548173ffffffffffffffffffffffffffffffffffffffff021916908373ffffffffffffffffffffffffffffffffffffffff1602179055506136258061005f6000396000f3fe608060405234801561001057600080fd5b50600436106100ea5760003560e01c8063e0277c991161008c578063e76d28ad11610066578063e76d28ad14610289578063f36be3dd146102b9578063f8e78e9a146102d7578063fed83fca146102f5576100ea565b8063e0277c99146101f4578063e62c6ac514610228578063e6ab51ad14610259576100ea565b80635e6fef01116100c85780635e6fef0114610157578063740c47d41461018a5780638da5cb5b146101a6578063c5a1902a146101c4576100ea565b806324108475146100ef5780632ba2fd151461010b5780633e39a7a514610127575b600080fd5b61010960048036038101906101049190612363565b610325565b005b610125600480360381019061012091906125c6565b6106b6565b005b610141600480360381019061013c91906126b1565b6109b7565b60405161014e919061286b565b60405180910390f35b610171600480360381019061016c91906126b1565b610bd8565b6040516101819493929190612901565b60405180910390f35b6101a4600480360381019061019f91906126b1565b610d25565b005b6101ae61122c565b6040516101bb9190612963565b60405180910390f35b6101de60048036038101906101d9919061297e565b611250565b6040516101eb91906129da565b60405180910390f35b61020e600480360381019061020991906126b1565b61156c565b60405161021f959493929190612b75565b60405180910390f35b610242600480360381019061023d91906126b1565b6118c3565b604051610250929190612be4565b60405180910390f35b610273600480360381019061026e91906126b1565b611ad2565b6040516102809190612c14565b60405180910390f35b6102a3600480360381019061029e9190612363565b611af6565b6040516102b09190612c14565b60405180910390f35b6102c1611cc6565b6040516102ce9190612c2f565b60405180910390f35b6102df611e1f565b6040516102ec9190612c14565b60405180910390f35b61030f600480360381019061030a9190612c51565b611e25565b60405161031c91906129da565b60405180910390f35b816002600082815260200190815260200160002060080160009054906101000a900460ff16610389576040517f08c379a000000000000000000000000000000000000000000000000000000000815260040161038090612cf9565b60405180910390fd5b600060026000858152602001908152602001600020905080600101544211156103e7576040517f08c379a00000000000000000000000000000000000000000000000000000000081526004016103de90612d65565b60405180910390fd5b8060050160003373ffffffffffffffffffffffffffffffffffffffff1673ffffffffffffffffffffffffffffffffffffffff16815260200190815260200160002060009054906101000a900460ff16610475576040517f08c379a000000000000000000000000000000000000000000000000000000000815260040161046c90612df7565b60405180910390fd5b8060040160003373ffffffffffffffffffffffffffffffffffffffff1673ffffffffffffffffffffffffffffffffffffffff16815260200190815260200160002060009054906101000a900460ff1615610504576040517f08c379a00000000000000000000000000000000000000000000000000000000081526004016104fb90612e63565b60405180910390fd5b6105e18382600201805480602002602001604051908101604052809291908181526020016000905b828210156105d857838290600052602060002001805461054b90612eb2565b80601f016020809104026020016040519081016040528092919081815260200182805461057790612eb2565b80156105c45780601f10610599576101008083540402835291602001916105c4565b820191906000526020600020905b8154815290600101906020018083116105a757829003601f168201915b50505050508152602001906001019061052c565b50505050611ffc565b610620576040517f08c379a000000000000000000000000000000000000000000000000000000000815260040161061790612f2f565b60405180910390fd5b80600301836040516106329190612f8b565b9081526020016040518091039020600081548092919061065190612fd1565b919050555060018160040160003373ffffffffffffffffffffffffffffffffffffffff1673ffffffffffffffffffffffffffffffffffffffff16815260200190815260200160002060006101000a81548160ff02191690831515021790555050505050565b60008054906101000a900473ffffffffffffffffffffffffffffffffffffffff1673ffffffffffffffffffffffffffffffffffffffff163373ffffffffffffffffffffffffffffffffffffffff1614610744576040517f08c379a000000000000000000000000000000000000000000000000000000000815260040161073b9061308b565b60405180910390fd5b6000835111610788576040517f08c379a000000000000000000000000000000000000000000000000000000000815260040161077f9061311d565b60405180910390fd5b60008251116107cc576040517f08c379a00000000000000000000000000000000000000000000000000000000081526004016107c3906131af565b60405180910390fd5b600160008154809291906107df90612fd1565b9190505550600060026000600154815260200190815260200160002090508581600001908161080e919061337b565b50603c8561081c919061344d565b42610827919061348f565b816001018190555060018160080160006101000a81548160ff0219169083151502179055508381600201908051906020019061086492919061209d565b5081816007019081610876919061337b565b5060005b835181101561098357600182600501600086848151811061089e5761089d6134c3565b5b602002602001015173ffffffffffffffffffffffffffffffffffffffff1673ffffffffffffffffffffffffffffffffffffffff16815260200190815260200160002060006101000a81548160ff0219169083151502179055508160060184828151811061090e5761090d6134c3565b5b60200260200101519080600181540180825580915050600190039060005260206000200160009091909190916101000a81548173ffffffffffffffffffffffffffffffffffffffff021916908373ffffffffffffffffffffffffffffffffffffffff160217905550808060010191505061087a565b5060036001549080600181540180825580915050600190039060005260206000200160009091909190915055505050505050565b6060816002600082815260200190815260200160002060080160009054906101000a900460ff16610a1d576040517f08c379a0000000000000000000000000000000000000000000000000000000008152600401610a1490612cf9565b60405180910390fd5b60006002600085815260200190815260200160002090506000816002018054905067ffffffffffffffff811115610a5757610a56612238565b5b604051908082528060200260200182016040528015610a9057816020015b610a7d6120f6565b815260200190600190039081610a755790505b50905060005b8260020180549050811015610bcc576040518060400160405280846002018381548110610ac657610ac56134c3565b5b906000526020600020018054610adb90612eb2565b80601f0160208091040260200160405190810160405280929190818152602001828054610b0790612eb2565b8015610b545780601f10610b2957610100808354040283529160200191610b54565b820191906000526020600020905b815481529060010190602001808311610b3757829003601f168201915b5050505050815260200184600301856002018481548110610b7857610b776134c3565b5b90600052602060002001604051610b8f9190613575565b908152602001604051809103902054815250828281518110610bb457610bb36134c3565b5b60200260200101819052508080600101915050610a96565b50809350505050919050565b6002602052806000526040600020600091509050806000018054610bfb90612eb2565b80601f0160208091040260200160405190810160405280929190818152602001828054610c2790612eb2565b8015610c745780601f10610c4957610100808354040283529160200191610c74565b820191906000526020600020905b815481529060010190602001808311610c5757829003601f168201915b505050505090806001015490806007018054610c8f90612eb2565b80601f0160208091040260200160405190810160405280929190818152602001828054610cbb90612eb2565b8015610d085780601f10610cdd57610100808354040283529160200191610d08565b820191906000526020600020905b815481529060010190602001808311610ceb57829003601f168201915b5050505050908060080160009054906101000a900460ff16905084565b60008054906101000a900473ffffffffffffffffffffffffffffffffffffffff1673ffffffffffffffffffffffffffffffffffffffff163373ffffffffffffffffffffffffffffffffffffffff1614610db3576040517f08c379a0000000000000000000000000000000000000000000000000000000008152600401610daa9061308b565b60405180910390fd5b806002600082815260200190815260200160002060080160009054906101000a900460ff16610e17576040517f08c379a0000000000000000000000000000000000000000000000000000000008152600401610e0e90612cf9565b60405180910390fd5b600060026000848152602001908152602001600020905060005b8160060180549050811015610ee4576000826006018281548110610e5857610e576134c3565b5b9060005260206000200160009054906101000a900473ffffffffffffffffffffffffffffffffffffffff1690508260050160008273ffffffffffffffffffffffffffffffffffffffff1673ffffffffffffffffffffffffffffffffffffffff16815260200190815260200160002060006101000a81549060ff0219169055508080600101915050610e31565b50806006016000610ef59190612110565b60005b8160020180549050811015610fe6576000826002018281548110610f1f57610f1e6134c3565b5b906000526020600020018054610f3490612eb2565b80601f0160208091040260200160405190810160405280929190818152602001828054610f6090612eb2565b8015610fad5780601f10610f8257610100808354040283529160200191610fad565b820191906000526020600020905b815481529060010190602001808311610f9057829003601f168201915b505050505090508260030181604051610fc69190612f8b565b908152602001604051809103902060009055508080600101915050610ef8565b5060005b816006018054905081101561109d576000826006018281548110611011576110106134c3565b5b9060005260206000200160009054906101000a900473ffffffffffffffffffffffffffffffffffffffff1690508260040160008273ffffffffffffffffffffffffffffffffffffffff1673ffffffffffffffffffffffffffffffffffffffff16815260200190815260200160002060006101000a81549060ff0219169055508080600101915050610fea565b508060000160006110ae9190612131565b80600101600090558060020160006110c69190612171565b8060070160006110d69190612131565b60008160080160006101000a81548160ff02191690831515021790555060005b6003805490508110156111b4578360038281548110611118576111176134c3565b5b9060005260206000200154036111a7576003600160038054905061113c919061358c565b8154811061114d5761114c6134c3565b5b90600052602060002001546003828154811061116c5761116b6134c3565b5b9060005260206000200181905550600380548061118c5761118b6135c0565b5b600190038181906000526020600020016000905590556111b4565b80806001019150506110f6565b5060026000848152602001908152602001600020600080820160006111d99190612131565b60018201600090556002820160006111f19190612171565b6006820160006112019190612110565b6007820160006112119190612131565b6008820160006101000a81549060ff02191690555050505050565b60008054906101000a900473ffffffffffffffffffffffffffffffffffffffff1681565b60008060009054906101000a900473ffffffffffffffffffffffffffffffffffffffff1673ffffffffffffffffffffffffffffffffffffffff163373ffffffffffffffffffffffffffffffffffffffff16146112e1576040517f08c379a00000000000000000000000000000000000000000000000000000000081526004016112d89061308b565b60405180910390fd5b826002600082815260200190815260200160002060080160009054906101000a900460ff16611345576040517f08c379a000000000000000000000000000000000000000000000000000000000815260040161133c90612cf9565b60405180910390fd5b6000835111611389576040517f08c379a0000000000000000000000000000000000000000000000000000000008152600401611380906131af565b60405180910390fd5b600060026000868152602001908152602001600020905060005b81600601805490508110156114565760008260060182815481106113ca576113c96134c3565b5b9060005260206000200160009054906101000a900473ffffffffffffffffffffffffffffffffffffffff1690508260050160008273ffffffffffffffffffffffffffffffffffffffff1673ffffffffffffffffffffffffffffffffffffffff16815260200190815260200160002060006101000a81549060ff02191690555080806001019150506113a3565b508060060160006114679190612110565b60005b845181101561155f576000858281518110611488576114876134c3565b5b6020026020010151905060018360050160008373ffffffffffffffffffffffffffffffffffffffff1673ffffffffffffffffffffffffffffffffffffffff16815260200190815260200160002060006101000a81548160ff02191690831515021790555082600601819080600181540180825580915050600190039060005260206000200160009091909190916101000a81548173ffffffffffffffffffffffffffffffffffffffff021916908373ffffffffffffffffffffffffffffffffffffffff16021790555050808060010191505061146a565b5060019250505092915050565b606060006060806060856002600082815260200190815260200160002060080160009054906101000a900460ff166115d9576040517f08c379a00000000000000000000000000000000000000000000000000000000081526004016115d090612cf9565b60405180910390fd5b6002600088815260200190815260200160002060000180546115fa90612eb2565b80601f016020809104026020016040519081016040528092919081815260200182805461162690612eb2565b80156116735780601f1061164857610100808354040283529160200191611673565b820191906000526020600020905b81548152906001019060200180831161165657829003601f168201915b505050505095506002600088815260200190815260200160002060010154945060026000888152602001908152602001600020600201805480602002602001604051908101604052809291908181526020016000905b828210156117755783829060005260206000200180546116e890612eb2565b80601f016020809104026020016040519081016040528092919081815260200182805461171490612eb2565b80156117615780601f1061173657610100808354040283529160200191611761565b820191906000526020600020905b81548152906001019060200180831161174457829003601f168201915b5050505050815260200190600101906116c9565b50505050935060026000888152602001908152602001600020600701805461179c90612eb2565b80601f01602080910402602001604051908101604052809291908181526020018280546117c890612eb2565b80156118155780601f106117ea57610100808354040283529160200191611815565b820191906000526020600020905b8154815290600101906020018083116117f857829003601f168201915b50505050509150600260008881526020019081526020016000206006018054806020026020016040519081016040528092919081815260200182805480156118b257602002820191906000526020600020905b8160009054906101000a900473ffffffffffffffffffffffffffffffffffffffff1673ffffffffffffffffffffffffffffffffffffffff1681526020019060010190808311611868575b505050505092505091939590929450565b60606000806002600085815260200190815260200160002090506000806040518060200160405280600081525090506000805b8460020180549050811015611a9b5783856003018660020183815481106119205761191f6134c3565b5b906000526020600020016040516119379190613575565b9081526020016040518091039020541115611a425784600301856002018281548110611966576119656134c3565b5b9060005260206000200160405161197d9190613575565b90815260200160405180910390205493508460020181815481106119a4576119a36134c3565b5b9060005260206000200180546119b990612eb2565b80601f01602080910402602001604051908101604052809291908181526020018280546119e590612eb2565b8015611a325780601f10611a0757610100808354040283529160200191611a32565b820191906000526020600020905b815481529060010190602001808311611a1557829003601f168201915b5050505050925060009150611a8e565b8385600301866002018381548110611a5d57611a5c6134c3565b5b90600052602060002001604051611a749190613575565b90815260200160405180910390205403611a8d57600191505b5b80806001019150506118f6565b508015611ac257600060405180602001604052806000815250909550955050505050611acd565b818395509550505050505b915091565b60038181548110611ae257600080fd5b906000526020600020016000915090505481565b6000826002600082815260200190815260200160002060080160009054906101000a900460ff16611b5c576040517f08c379a0000000000000000000000000000000000000000000000000000000008152600401611b5390612cf9565b60405180910390fd5b611c4b8360026000878152602001908152602001600020600201805480602002602001604051908101604052809291908181526020016000905b82821015611c42578382906000526020600020018054611bb590612eb2565b80601f0160208091040260200160405190810160405280929190818152602001828054611be190612eb2565b8015611c2e5780601f10611c0357610100808354040283529160200191611c2e565b820191906000526020600020905b815481529060010190602001808311611c1157829003601f168201915b505050505081526020019060010190611b96565b50505050611ffc565b611c8a576040517f08c379a0000000000000000000000000000000000000000000000000000000008152600401611c8190612f2f565b60405180910390fd5b6002600085815260200190815260200160002060030183604051611cae9190612f8b565b90815260200160405180910390205491505092915050565b6060600060038054905067ffffffffffffffff811115611ce957611ce8612238565b5b604051908082528060200260200182016040528015611d1c57816020015b6060815260200190600190039081611d075790505b50905060005b600380549050811015611e17576002600060038381548110611d4757611d466134c3565b5b906000526020600020015481526020019081526020016000206000018054611d6e90612eb2565b80601f0160208091040260200160405190810160405280929190818152602001828054611d9a90612eb2565b8015611de75780601f10611dbc57610100808354040283529160200191611de7565b820191906000526020600020905b815481529060010190602001808311611dca57829003601f168201915b5050505050828281518110611dff57611dfe6134c3565b5b60200260200101819052508080600101915050611d22565b508091505090565b60015481565b60008060009054906101000a900473ffffffffffffffffffffffffffffffffffffffff1673ffffffffffffffffffffffffffffffffffffffff163373ffffffffffffffffffffffffffffffffffffffff1614611eb6576040517f08c379a0000000000000000000000000000000000000000000000000000000008152600401611ead9061308b565b60405180910390fd5b826002600082815260200190815260200160002060080160009054906101000a900460ff16611f1a576040517f08c379a0000000000000000000000000000000000000000000000000000000008152600401611f1190612cf9565b60405180910390fd5b6000835111611f5e576040517f08c379a0000000000000000000000000000000000000000000000000000000008152600401611f559061311d565b60405180910390fd5b6000600260008681526020019081526020016000209050806002016000611f859190612171565b60005b8451811015611fef5781600201858281518110611fa857611fa76134c3565b5b6020026020010151908060018154018082558091505060019003906000526020600020016000909190919091509081611fe1919061337b565b508080600101915050611f88565b5060019250505092915050565b600080600090505b8251811015612091578360405160200161201e9190612f8b565b60405160208183030381529060405280519060200120838281518110612047576120466134c3565b5b602002602001015160405160200161205f9190612f8b565b6040516020818303038152906040528051906020012003612084576001915050612097565b8080600101915050612004565b50600090505b92915050565b8280548282559060005260206000209081019282156120e5579160200282015b828111156120e45782518290816120d4919061337b565b50916020019190600101906120bd565b5b5090506120f29190612192565b5090565b604051806040016040528060608152602001600081525090565b508054600082559060005260206000209081019061212e91906121b6565b50565b50805461213d90612eb2565b6000825580601f1061214f575061216e565b601f01602090049060005260206000209081019061216d91906121b6565b5b50565b508054600082559060005260206000209081019061218f9190612192565b50565b5b808211156121b257600081816121a99190612131565b50600101612193565b5090565b5b808211156121cf5760008160009055506001016121b7565b5090565b6000604051905090565b600080fd5b600080fd5b6000819050919050565b6121fa816121e7565b811461220557600080fd5b50565b600081359050612217816121f1565b92915050565b600080fd5b600080fd5b6000601f19601f8301169050919050565b7f4e487b7100000000000000000000000000000000000000000000000000000000600052604160045260246000fd5b61227082612227565b810181811067ffffffffffffffff8211171561228f5761228e612238565b5b80604052505050565b60006122a26121d3565b90506122ae8282612267565b919050565b600067ffffffffffffffff8211156122ce576122cd612238565b5b6122d782612227565b9050602081019050919050565b82818337600083830152505050565b6000612306612301846122b3565b612298565b90508281526020810184848401111561232257612321612222565b5b61232d8482856122e4565b509392505050565b600082601f83011261234a5761234961221d565b5b813561235a8482602086016122f3565b91505092915050565b6000806040838503121561237a576123796121dd565b5b600061238885828601612208565b925050602083013567ffffffffffffffff8111156123a9576123a86121e2565b5b6123b585828601612335565b9150509250929050565b600067ffffffffffffffff8211156123da576123d9612238565b5b602082029050602081019050919050565b600080fd5b60006124036123fe846123bf565b612298565b90508083825260208201905060208402830185811115612426576124256123eb565b5b835b8181101561246d57803567ffffffffffffffff81111561244b5761244a61221d565b5b8086016124588982612335565b85526020850194505050602081019050612428565b5050509392505050565b600082601f83011261248c5761248b61221d565b5b813561249c8482602086016123f0565b91505092915050565b600067ffffffffffffffff8211156124c0576124bf612238565b5b602082029050602081019050919050565b600073ffffffffffffffffffffffffffffffffffffffff82169050919050565b60006124fc826124d1565b9050919050565b61250c816124f1565b811461251757600080fd5b50565b60008135905061252981612503565b92915050565b600061254261253d846124a5565b612298565b90508083825260208201905060208402830185811115612565576125646123eb565b5b835b8181101561258e578061257a888261251a565b845260208401935050602081019050612567565b5050509392505050565b600082601f8301126125ad576125ac61221d565b5b81356125bd84826020860161252f565b91505092915050565b600080600080600060a086880312156125e2576125e16121dd565b5b600086013567ffffffffffffffff811115612600576125ff6121e2565b5b61260c88828901612335565b955050602061261d88828901612208565b945050604086013567ffffffffffffffff81111561263e5761263d6121e2565b5b61264a88828901612477565b935050606086013567ffffffffffffffff81111561266b5761266a6121e2565b5b61267788828901612598565b925050608086013567ffffffffffffffff811115612698576126976121e2565b5b6126a488828901612335565b9150509295509295909350565b6000602082840312156126c7576126c66121dd565b5b60006126d584828501612208565b91505092915050565b600081519050919050565b600082825260208201905092915050565b6000819050602082019050919050565b600081519050919050565b600082825260208201905092915050565b60005b83811015612744578082015181840152602081019050612729565b60008484015250505050565b600061275b8261270a565b6127658185612715565b9350612775818560208601612726565b61277e81612227565b840191505092915050565b612792816121e7565b82525050565b600060408301600083015184820360008601526127b58282612750565b91505060208301516127ca6020860182612789565b508091505092915050565b60006127e18383612798565b905092915050565b6000602082019050919050565b6000612801826126de565b61280b81856126e9565b93508360208202850161281d856126fa565b8060005b85811015612859578484038952815161283a85826127d5565b9450612845836127e9565b925060208a01995050600181019050612821565b50829750879550505050505092915050565b6000602082019050818103600083015261288581846127f6565b905092915050565b600082825260208201905092915050565b60006128a98261270a565b6128b3818561288d565b93506128c3818560208601612726565b6128cc81612227565b840191505092915050565b6128e0816121e7565b82525050565b60008115159050919050565b6128fb816128e6565b82525050565b6000608082019050818103600083015261291b818761289e565b905061292a60208301866128d7565b818103604083015261293c818561289e565b905061294b60608301846128f2565b95945050505050565b61295d816124f1565b82525050565b60006020820190506129786000830184612954565b92915050565b60008060408385031215612995576129946121dd565b5b60006129a385828601612208565b925050602083013567ffffffffffffffff8111156129c4576129c36121e2565b5b6129d085828601612598565b9150509250929050565b60006020820190506129ef60008301846128f2565b92915050565b600081519050919050565b600082825260208201905092915050565b6000819050602082019050919050565b6000612a2d8383612750565b905092915050565b6000602082019050919050565b6000612a4d826129f5565b612a578185612a00565b935083602082028501612a6985612a11565b8060005b85811015612aa55784840389528151612a868582612a21565b9450612a9183612a35565b925060208a01995050600181019050612a6d565b50829750879550505050505092915050565b600081519050919050565b600082825260208201905092915050565b6000819050602082019050919050565b612aec816124f1565b82525050565b6000612afe8383612ae3565b60208301905092915050565b6000602082019050919050565b6000612b2282612ab7565b612b2c8185612ac2565b9350612b3783612ad3565b8060005b83811015612b68578151612b4f8882612af2565b9750612b5a83612b0a565b925050600181019050612b3b565b5085935050505092915050565b600060a0820190508181036000830152612b8f818861289e565b9050612b9e60208301876128d7565b8181036040830152612bb08186612a42565b90508181036060830152612bc48185612b17565b90508181036080830152612bd8818461289e565b90509695505050505050565b60006040820190508181036000830152612bfe818561289e565b9050612c0d60208301846128d7565b9392505050565b6000602082019050612c2960008301846128d7565b92915050565b60006020820190508181036000830152612c498184612a42565b905092915050565b60008060408385031215612c6857612c676121dd565b5b6000612c7685828601612208565b925050602083013567ffffffffffffffff811115612c9757612c966121e2565b5b612ca385828601612477565b9150509250929050565b7f456c656374696f6e20646f6573206e6f74206578697374000000000000000000600082015250565b6000612ce360178361288d565b9150612cee82612cad565b602082019050919050565b60006020820190508181036000830152612d1281612cd6565b9050919050565b7f456c656374696f6e2068617320656e6465640000000000000000000000000000600082015250565b6000612d4f60128361288d565b9150612d5a82612d19565b602082019050919050565b60006020820190508181036000830152612d7e81612d42565b9050919050565b7f596f7520617265206e6f7420616c6c6f77656420746f20766f746520696e207460008201527f68697320656c656374696f6e0000000000000000000000000000000000000000602082015250565b6000612de1602c8361288d565b9150612dec82612d85565b604082019050919050565b60006020820190508181036000830152612e1081612dd4565b9050919050565b7f596f75206861766520616c726561647920766f74656400000000000000000000600082015250565b6000612e4d60168361288d565b9150612e5882612e17565b602082019050919050565b60006020820190508181036000830152612e7c81612e40565b9050919050565b7f4e487b7100000000000000000000000000000000000000000000000000000000600052602260045260246000fd5b60006002820490506001821680612eca57607f821691505b602082108103612edd57612edc612e83565b5b50919050565b7f496e76616c69642063616e646964617465000000000000000000000000000000600082015250565b6000612f1960118361288d565b9150612f2482612ee3565b602082019050919050565b60006020820190508181036000830152612f4881612f0c565b9050919050565b600081905092915050565b6000612f658261270a565b612f6f8185612f4f565b9350612f7f818560208601612726565b80840191505092915050565b6000612f978284612f5a565b915081905092915050565b7f4e487b7100000000000000000000000000000000000000000000000000000000600052601160045260246000fd5b6000612fdc826121e7565b91507fffffffffffffffffffffffffffffffffffffffffffffffffffffffffffffffff820361300e5761300d612fa2565b5b600182019050919050565b7f4f6e6c79206f776e65722063616e20706572666f726d2074686973206163746960008201527f6f6e000000000000000000000000000000000000000000000000000000000000602082015250565b600061307560228361288d565b915061308082613019565b604082019050919050565b600060208201905081810360008301526130a481613068565b9050919050565b7f5468657265206d757374206265206174206c65617374206f6e652063616e646960008201527f6461746500000000000000000000000000000000000000000000000000000000602082015250565b600061310760248361288d565b9150613112826130ab565b604082019050919050565b60006020820190508181036000830152613136816130fa565b9050919050565b7f5468657265206d757374206265206174206c65617374206f6e6520616c6c6f7760008201527f656420766f746572000000000000000000000000000000000000000000000000602082015250565b600061319960288361288d565b91506131a48261313d565b604082019050919050565b600060208201905081810360008301526131c88161318c565b9050919050565b60008190508160005260206000209050919050565b60006020601f8301049050919050565b600082821b905092915050565b6000600883026132317fffffffffffffffffffffffffffffffffffffffffffffffffffffffffffffffff826131f4565b61323b86836131f4565b95508019841693508086168417925050509392505050565b6000819050919050565b600061327861327361326e846121e7565b613253565b6121e7565b9050919050565b6000819050919050565b6132928361325d565b6132a661329e8261327f565b848454613201565b825550505050565b600090565b6132bb6132ae565b6132c6818484613289565b505050565b5b818110156132ea576132df6000826132b3565b6001810190506132cc565b5050565b601f82111561332f57613300816131cf565b613309846131e4565b81016020851015613318578190505b61332c613324856131e4565b8301826132cb565b50505b505050565b600082821c905092915050565b600061335260001984600802613334565b1980831691505092915050565b600061336b8383613341565b9150826002028217905092915050565b6133848261270a565b67ffffffffffffffff81111561339d5761339c612238565b5b6133a78254612eb2565b6133b28282856132ee565b600060209050601f8311600181146133e557600084156133d3578287015190505b6133dd858261335f565b865550613445565b601f1984166133f3866131cf565b60005b8281101561341b578489015182556001820191506020850194506020810190506133f6565b868310156134385784890151613434601f891682613341565b8355505b6001600288020188555050505b505050505050565b6000613458826121e7565b9150613463836121e7565b9250828202613471816121e7565b9150828204841483151761348857613487612fa2565b5b5092915050565b600061349a826121e7565b91506134a5836121e7565b92508282019050808211156134bd576134bc612fa2565b5b92915050565b7f4e487b7100000000000000000000000000000000000000000000000000000000600052603260045260246000fd5b600081546134ff81612eb2565b6135098186612f4f565b9450600182166000811461352457600181146135395761356c565b60ff198316865281151582028601935061356c565b613542856131cf565b60005b8381101561356457815481890152600182019150602081019050613545565b838801955050505b50505092915050565b600061358182846134f2565b915081905092915050565b6000613597826121e7565b91506135a2836121e7565b92508282039050818111156135ba576135b9612fa2565b5b92915050565b7f4e487b7100000000000000000000000000000000000000000000000000000000600052603160045260246000fdfea26469706673582212206cca16f141a067819ba1ebc4bbce1b7e30d67f91241b7ddaf9dfd7a737f9471f64736f6c634300081c0033",
  "linkReferences": {},
  "deployedLinkReferences": {}
}